:4000000000800020110000004D0400004D04000008B5044B1A6803F53F5302331A6000F01DFA00BFFA46004010B5054C237833B9044B13B10448AFF300800123237010BDBE
:400040004881FF1F00000000980D0000084B10B51BB108490848AFF300800848036803B910BD074B002BFBD0BDE81040184700BF000000004C81FF1F980D0000C880FF1FB8
:400080000000000010B500F0ABFC0E4B1B689BB110BD00F0A3FA0C4908700C4B1C6809484268531C43600978A154B3F5906F03DB012202600022426000F0C2FA0028E8D1DC
:4000C00010BD00BF6481FF1F8486FF1F8081FF1F08B562B600F05EFB00F0FCFD00F068FD00F0E8FC00F09AFD00F0DAFA00F090FB034A044B1A60044A044B1A6008BD00BF83
:400100009086FF1F8081FF1F0482FF1F8C86FF1F10B500240EE04D2000F0AAFD40F6D92000F0F8F9002000F0A3FD40F6D92000F0F1F90134B4F5906FEDDB10BD08B5FFF7CF
:40014000C7FF0C4800F03EFC0B4B1B683BB172B60A4A11680A4B18681060196062B60022054B1A60074B187800F022FBFFF7D0FFEAE700BF850000006481FF1F8C86FF1FC3
:400180008081FF1FCC80FF1FFEE700BFF0B40022174611E050F82760F3B226F0FF0608E001EB420511F812406D78A5550132013BDBB2002BF4D10137182FEBD9F0BC704788
:4001C000194B1B78DBB203F00701184A11701B0901321370C022164B1A704023154A1370092102F29F621170102213490A702021124801700D30037003300170042010492C
:4002000008708020013108707C310A700D4A137001220D4B1A7040F2091278331A804422A3F2CE231A707047CF0100496E5800403D510040CD510040005A0040035A0040B5
:40024000175A0040CB5A0040CC5A004008B50A46002100F098FD08BD38B59B22244B1A80182202331A70022203F27E231A7008224FF040231A70032103F5007319701D4BC4
:400280001B78DBB21C490B701C4B1A8041F25122023B1A80002419250CE0194B1B7803F0010343EA440404F003044FF4F07000F023FD013D0DB1032CEFD115B90320FFF78F
:4002C00063FF104B4FF480721A8007221A7000220D490A704820023108701A700222033B1A700A4A137843F00103137038BD00BF8040004008010049A146004022420040DA
:40030000254200400440004006400040A243004008B500F02DFD08BD38B572B6384A137843F00403137000240CE0364D630019194A0011462A44084691882858FFF786FFD3
:400340000134E4B2082CF0D900240BE02D49A3001819420088188022C16B806BFFF7D8FF0134E4B2002CF1D027494FF09040FFF70DFF264A137843F0020313701032137838
:4003800043F002031370224C237843F040032370A2F58632513A137843F01003137008221C491D48FFF7B4FF0A221C491C48FFF7AFFF05221B491C48FFF7AAFF08221B49F0
:4003C0001B48FFF7A5FF08221A491B48FFF7A0FF1A4A137843F008031370194D61232B70FFF73AFF81232B700122164B1A70FFF7E7FE0E2221461448FFF78AFF38BD00BFC9
:40040000E84600409C0D00006400004803500140A0430040680600480251004070060048C05100407C060048CB51004084060048125100408C06004832510040224300400D
:400440000048004004000840B043004008B500F063FC03680C2B00D1FEE7FEE708B5104E104D16E029686B68AC68002204E051F8040B43F8040B0432A242F8D1E868002249
:4004800003E0002143F8041B04328242F9D11035013E002EE6D100F045FCFFF74FFEFEE7010000001C0E000008B5104A104B1A60104A136843F40073136000230AE0032B14
:4004C00003D80D4A52F8231000E00C490C4A42F8231001332F2BF2D90A4B1A780A4B1A70074A0A4B1A60FFF717FF08BD0004FA050CED00E014ED00E0000000004D04000037
:400500000080FF1FBC760040C080FF1F08ED00E001BE704708B5034B1B7A00FB03F000F0EBFB08BDD080FF1F70B504460E46074B1D681F2802D90020FFF7EAFF04F01F0499
:40054000103455F8240045F8246070BD08ED00E038B504460D46072902D90020FFF7D8FF1F2C02D90020FFF7D3FF04F01F0000F1604000F564406D01EDB2057038BD00BF00
:4005800010B500F0C1FB04460F4A137843F0200313700432137843F0100313700B4A0123136000210A4B19700A490B7843F010030B70022308490B60136000F017FA2046FC
:4005C00000F0A6FB10BD00BF9864004000E100E07081FF1F9A65004080E200E00122134B1A60134A5378DBB29178C9B2D27812F0FF0F01D18B4211D00E4AD05CC0B2013319
:40060000DBB2072B00D90023094A5370D37813F0FF0F06D00022064BDA7002E0064B1878C0B20122054B1A60704700BF80E100E07081FF1F188BFF1F4864004000E100E0A4
:400640000122144B1A60144B5A78D2B29B78DBB29A4206D1104BDB7813F0FF0F15D0082014E00D4B5A78D2B29B78DBB29A4205D2094A93785078181AC0B207E0064A9378A9
:400680005078181A0830C0B200E000200122034B1A60704780E100E07081FF1F00E100E008B500F031FB0B4B1A7842F001021A701A7802F0FE021A7000F02AFB0121064BCD
:4006C0001960064B00225A709A70DA701A71044B196008BD9864004080E100E07081FF1F00E100E006490B7803F01F024301DBB213430B70034B18700022034B1A7070477C
:400700007B640040E080FF1F7081FF1F014B1870704700BF28640040014B1870704700BF3864004010B516490020FFF7FDFE07210020FFF70DFF0024124B5C710120FFF7ED
:40074000D1FF2046FFF7E2FF2046FFF7E5FF76220D4B1A70202204331A700C490120FFF7E3FE07210120FFF7F3FE0E22084B1A708F2210331A7002224F331A7010BD00BFEB
:40078000510800007081FF1F88640040390900002B65004008B5054B9B7923B9FFF7C2FF0122024B9A71FFF7EBFE08BD7081FF1F114B9B79F3B10222104B1A600E4AD37900
:4007C000DBB2127A934207D10D4B1B7813F0040F02D10C4B18700AE0072A02D90022064B1A72054A137A0849C854013313720222064B1A60704700BF7081FF1F80E100E0D4
:400800006A6500404A650040108BFF1F00E100E008B500F079FA0A4B1A7842F001021A701A7802F0FE021A7000F072FA0223054A1360054A0021D1711172044A136008BD6E
:400840009A65004080E100E07081FF1F00E100E010B400202E4B1B78DBB213F01E0F05D02C4C03F01E0221780A43227003F0200202F0FF01002A46D0274A1278D4B2274A6A
:400880001278D2B2022A18D113F0010F09D013F0400F03D00122224B1A7002E00022204B1A701F4B1B7813F0FF0F0CD01D4B1B78DBB21D4AD454012005E01A4B1B78DBB265
:4008C000194AD4540120F0B1184B1B7813F0FF0F02D00122164B1A70124A13780133DBB213701378DBB2072B02D900220D4B1A700C4B1A78D2B20F4B1B78DBB29A4202D1DA
:4009000001220A4B1A700029A4D110BC704700BF6C6400407581FF1F48640040E080FF1F7081FF1F7281FF1F188BFF1F7381FF1F7481FF1F7181FF1F13E0104B1B78DBB2C3
:40094000072B02D900220D4B1A700C4A1378DBB20B49CB5CDBB20B490B7013780133DBB21370064B1B78DBB2074A1278934204D0064B1B7813F0040FDFD070477781FF1FE7
:40098000108BFF1F4A6500407881FF1F6A650040014B1B689864704708ED00E04001C0B2014B1870704700BF02E400E00422014B1A60704700E100E00422014B1A60704748
:4009C00080E100E010B50446FFF7F6FF2046FFF7DFFF0720FFF7E2FFFFF7E8FF10BD00BF0422014B1A60704780E200E0054A137843F0010313701032137843F0010313701B
:400A0000704700BFA2430040084A137843F0010313701032137843F00103137002F5A5521E32137843F0800313707047A9430040044A137803F0FC0300F00300184310707F
:400A4000704700BF01580040072809D8054B1A7802F08F021A701A780001C0B210431870704700BF02580040032809D8054B1A7802F0F3021A701A788000C0B210431870BA
:400A8000704700BF0258004010B50224084B1C700C2201331A70012201331A700020FFF7D3FF0020FFF7E0FF2046FFF7C1FF10BD0058004008B5054B1B7823B90122034B44
:400AC0001A70FFF7E1FFFFF79FFF08BD7A81FF1F084A137843F0020313701032137843F00203137002F5A5521E32137843F0800313707047A9430040044A137803F0FC0354
:400B000000F0030018431070704700BF0558004010B487B00446194B03AA1868596803C2197A11706A4653F80C0F596803C21B7A1370082C1ED812490B7803F08003DBB2A5
:400B40000B70087806AB1C4414F80C3C14F8182C920002F00C02134303430B70094A137803F0F3031370117814F8183C0B4343F00C03137007B010BC704700BFE00D0000F0
:400B8000065800400558004008B50C22064B1A70064A1378DBB213700020FFF7B9FF0220FFF7AAFF08BD00BF045800400558004008B5054B1B7823B90122034B1A70FFF790
:400BC000E3FFFFF785FF08BD7B81FF1F084A137843F060031370A2F5A652133A137843F0040313701032137843F004031370704777580040054B1A7802F0FC021A701A7862
:400C000000F0030010431870704700BF5C58004008B50220FFF7EEFF08BD00BF08B5054B1B7823B90122034B1A70FFF7F1FFFFF7CDFF08BD7C81FF1F054A137843F0040323
:400C400013701032137843F004031370704700BFA8430040054B1A7802F0FD021A701A7800F0020010431870704700BF28580040014B1870704700BF825B0040094B1B7886
:400C800003F00C035B08084A127812F0040F00D0013303F1924393F82831DBB2034A1370704700BF28580040295800400A46004008B51022064B1A700133002018701A7811
:400CC000D2B21A70FFF7C6FFFFF7D8FF08BD00BF2858004008B5074B1B7823B9FFF7E8FF0122044B1A70FFF7A7FF0F20FFF7C0FF08BD00BF7D81FF1F0230800803D000BF57
:400D000001380046FCD17047EFF3108072B6704780F31088704700BF014B1868704700BF4481FF1F0E4B70B51E460E4C0025E41AA410A54204D056F8253098470135F8E754
:400D400000F05AF8084B094C1E46E41AA4100025A54204D056F8253098470135F8E770BD040E0000040E0000040E00000C0E000010B5431E0A44914204D011F8014B03F814
:400D8000014FF8E710BD03460244934202D003F8011BFAE77047000000000000205100401000405100403000F0510040100000000140000880080140800700140140000809
:400DC00000400140000A004C01400002005001402000000000080140E805004880000000112131415171536373000000080901010502070404430000F8B500BFF8BC08BC4B
:400E00009E4670474D000000A9040000F8B500BFF8BC08BC9E46704729000000300E0000C880FF1F80000000D80900000000000000000000010000000000E02EC05D000044
:400E40001800000000366E01010000000000000000000000000000000000000000000000000000000000000000000000F50D000000000000000000000000000000000000B2
:400E80000000000000000000000000000000000000000000000000000000000000000000000000000000000000000000E480FF1F00000000000000000000000000000000B0
:400EC00000000000000000000000000000000000000000000000000000000000000000000000000000000000000000000000000000000000000000000000000000000000F2
:400F000000000000000000000000000000000000000000000000000000000000000000000000000000000000000000000000000000000000000000000000000000000000B1
:400F40000000000000000000000000000000000000000000000000000000000000000000000000000000000000000000000000000000000000000000000000000000000071
:400F80000000000000000000000000000000000000000000000000000000000000000000000000000000000000000000000000000000000000000000000000000000000031
:020000040003F7
:0200000480007A
:40000000026400400165004001050140150801404C0901404F0A0140480B0140480C01402F0D0140011501404D1801403E190140601A0140441B01400640014002410140FE
:40004000034201400143014002440140024501400148014003490140044D0140055001400151014088768C798A0FEE018208841F88018A0C8C10920F940F96109A109C10E1
:400080009E0FA208A410A804AA02AC01AE02B01FBE01D804DF01008002040350040206040711080209500B100C820F1810821210132015021620176019011E021F102401C9
:4000C0002570262027012C082F103502362037043C013E083F504508460847504C814D044E085501562257415E206D116E146F0A7408750676107704900294809507960CD1
:40010000975098029A049B209D049E029F55A002A208A304A480A511A601A74AC0FFC2FFC4FFCA60CCE0CEF0D070D230D62001070208043F0507081009030B040C100D027D
:400140000E2F0F01101F110412201303142F150416101A101B011E0F1F01220823082401260C270428042A022B022C012E022F03301F330F362038803E01580459045F01AF
:40018000806D810382928501861C870289018B028C248EDB8F04920394FF97049AE09EFF9F08A0DBA224A492A66DA708A8FFA901AB02AD01AF02B104B508B6FFB703BE4050
:4001C000BF11D2E0D804D904DB04DF0103550761081009900B500C220D800F10102211021320144015121608171819411F402208240325802612281229012B042D042F0A3B
:4002000030A03104330135403608388039023A083B103D213E043F80400241805D205E2074227502760477207E027F018D808E2094019510960897D29B089C409D229E02FD
:400240009F61A304A4A2A501A621A880B401B704C0BFC2FFC47FCA7FCC5FCEFF00400203031D04400540060C091D0A3F0E3F0F1D10801101131C171D184019201A301B08DD
:400280001D011E15223F2302243F25202710283F291D2D202E2A2F05303F331C34C035033760382039803B203E103F4054595604580459045B045F01823F863F883F8E3FAF
:4002C0009009922494369501960998389A079C3FA009A212A438A607A83FAC07AE38B23FB301BA08BF04D804D904DF0100100220034105020725085009010A100CA00E401C
:4003000010A211101440151016221A101B041E401F1022082504264027082C222D102F403204341037693C113D083E203F505E826480652067228608C0FFC2DFC4FFCAF0AB
:40034000CCF2CEF0D690D8F0E008E204011F020303E0042F05E3071C09E30A010B1C0C2C0E011204142715481608172519031A081BFC1D921E011F25202C22022408252505
:4003800027DA28042A102DE02E012F1C3010322033FF360F3E443F04580459045F01810683018410850F89028C0C8D098E11901C910792029308942095049A039B069C093A
:4003C0009E109F10A320A414A509A706A810AA0CAB08AF09B138B220B307B41FBB0ABE04D804D904DF0101040202040A060407110A490B200D220F321020120814041502E9
:40040000174419041A081D821E202080210923502720280229012B142E802F2231A033053414354036203708388839023A103D013E149002911192149480950296089750F5
:40044000980299019A149B059F50A120A220A307A440A508A610C0F5C2FFC4F6CA5FCC7FCEEF0103031406080735102C1113124313641513172C1B401E0C2348248026136D
:4004800028712A062C712D4A2E0E2F34300F3168330F343036C0371038A03A023B0A3E103F4040634105450B46E047C0482949FF4AFF4BFF4EF04F44500C540156045804F5
:4004C00059045A045B045F0166C06A406B0280C08230860288558AA88CA88E549601970298CD9A30A03DA2C0A302A40DA6F0A701A8CDAA30B103B403B6FCBB08BF01C006BF
:40050000C504C9FFCA0FCBFFCC40CD20CEF0CF05D008D804D904DA04DF01E040E1A8E240E32001040540068007280A410E241108120A141015111A411B511D401F60224AD5
:40054000248027502B412F60321A370838023A04410848204A0A4D044E104F2050015310550C5604582059045A805B0261017A107B2081018B1A8C21911192049480950484
:4005800096419720981099049A809B209D409F58A420A60AA720C0F4C269C477CAC9CC47CE03D002D22CD60FD8013240330137106A806B01CC7096809F109F10AA40EE801A
:4005C0009F107002DC018402A4029F1083109F10E22010808880C408E60100010C010E0110011C01003F0000000B3F003F0B00000C080303000B3F0003100C003F020000B1
:400600000A1000030100000000003000010000040C01030022000500000000001F182007002000800000100035020600010E4C402FFFFFFF62A0F0410C00000000000211CC
:400640000404040400000001000000000000400200103010001010120000000000000000000000000000000000000000000001008000408080008000000000000080008064
:40068000C0000000000B0B0000000000000000000000C0000000000000000000000000000000000000000000000000000000000000000000000000000000000000000000A4
:4006C00000000000000000000000000000000000000000000000000000000000000000000000000000000000000000000000000000000000000000000000000000000000FA
:4007000000000000000000000000000000000000000000000000000000000000000000000000000000000000000000000000000000000000000000000000000000000000B9
:400740000000000000000000000000000000000000000000000000000000000000000000000000000000000000000000000000000000000000000000000000000000000079
:400780000000000000000000000000000000000000000000000000000000000000000000000000000000000000000000000000000000000000000000000000000000000039
:0200000490006A
:0400000000004005B7
:0200000490105A
:04000000BC90ACAF55
:0200000490303A
:02000000AC252D
:0200000490402A
:4000000000000000000000000000000000000000000000000000000000000000000000000000000000000000000000000000000000000000000000000000000000000000C0
:400040000000000000000000000000000000000000000000000000000000000000000000000000000000000000000000000000000000000000000000000000000000000080
:400080000000000000000000000000000000000000000000000000000000000000000000000000000000000000000000000000000000000000000000000000000000000040
:4000C0000000000000000000000000000000000000000000000000000000000000000000000000000000000000000000000000000000000000000000000000000000000000
:0200000490501A
:0C00000000012E16106900012E1CBC8EA1
:00000001FF